{
  "_format": "hh-sol-artifact-1",
  "contractName": "Elon",
  "sourceName": "contracts/Elon.sol",
  "abi": [
    {
      "inputs": [],
      "stateMutability": "nonpayable",
      "type": "constructor"
    },
    {
      "anonymous": false,
      "inputs": [
        {
          "indexed": true,
          "internalType": "address",
          "name": "owner",
          "type": "address"
        },
        {
          "indexed": true,
          "internalType": "address",
          "name": "approved",
          "type": "address"
        },
        {
          "indexed": true,
          "internalType": "uint256",
          "name": "tokenId",
          "type": "uint256"
        }
      ],
      "name": "Approval",
      "type": "event"
    },
    {
      "anonymous": false,
      "inputs": [
        {
          "indexed": true,
          "internalType": "address",
          "name": "owner",
          "type": "address"
        },
        {
          "indexed": true,
          "internalType": "address",
          "name": "operator",
          "type": "address"
        },
        {
          "indexed": false,
          "internalType": "bool",
          "name": "approved",
          "type": "bool"
        }
      ],
      "name": "ApprovalForAll",
      "type": "event"
    },
    {
      "anonymous": false,
      "inputs": [
        {
          "indexed": true,
          "internalType": "address",
          "name": "from",
          "type": "address"
        },
        {
          "indexed": true,
          "internalType": "address",
          "name": "to",
          "type": "address"
        },
        {
          "indexed": true,
          "internalType": "uint256",
          "name": "tokenId",
          "type": "uint256"
        }
      ],
      "name": "Transfer",
      "type": "event"
    },
    {
      "inputs": [
        {
          "internalType": "address",
          "name": "to",
          "type": "address"
        },
        {
          "internalType": "uint256",
          "name": "tokenId",
          "type": "uint256"
        }
      ],
      "name": "approve",
      "outputs": [],
      "stateMutability": "nonpayable",
      "type": "function"
    },
    {
      "inputs": [
        {
          "internalType": "address",
          "name": "owner",
          "type": "address"
        }
      ],
      "name": "balanceOf",
      "outputs": [
        {
          "internalType": "uint256",
          "name": "",
          "type": "uint256"
        }
      ],
      "stateMutability": "view",
      "type": "function"
    },
    {
      "inputs": [
        {
          "internalType": "uint256",
          "name": "tokenId",
          "type": "uint256"
        }
      ],
      "name": "getApproved",
      "outputs": [
        {
          "internalType": "address",
          "name": "",
          "type": "address"
        }
      ],
      "stateMutability": "view",
      "type": "function"
    },
    {
      "inputs": [
        {
          "internalType": "address",
          "name": "owner",
          "type": "address"
        },
        {
          "internalType": "address",
          "name": "operator",
          "type": "address"
        }
      ],
      "name": "isApprovedForAll",
      "outputs": [
        {
          "internalType": "bool",
          "name": "",
          "type": "bool"
        }
      ],
      "stateMutability": "view",
      "type": "function"
    },
    {
      "inputs": [],
      "name": "mintNFT",
      "outputs": [
        {
          "internalType": "uint256",
          "name": "",
          "type": "uint256"
        }
      ],
      "stateMutability": "nonpayable",
      "type": "function"
    },
    {
      "inputs": [],
      "name": "name",
      "outputs": [
        {
          "internalType": "string",
          "name": "",
          "type": "string"
        }
      ],
      "stateMutability": "view",
      "type": "function"
    },
    {
      "inputs": [
        {
          "internalType": "uint256",
          "name": "tokenId",
          "type": "uint256"
        }
      ],
      "name": "ownerOf",
      "outputs": [
        {
          "internalType": "address",
          "name": "",
          "type": "address"
        }
      ],
      "stateMutability": "view",
      "type": "function"
    },
    {
      "inputs": [
        {
          "internalType": "address",
          "name": "from",
          "type": "address"
        },
        {
          "internalType": "address",
          "name": "to",
          "type": "address"
        },
        {
          "internalType": "uint256",
          "name": "tokenId",
          "type": "uint256"
        }
      ],
      "name": "safeTransferFrom",
      "outputs": [],
      "stateMutability": "nonpayable",
      "type": "function"
    },
    {
      "inputs": [
        {
          "internalType": "address",
          "name": "from",
          "type": "address"
        },
        {
          "internalType": "address",
          "name": "to",
          "type": "address"
        },
        {
          "internalType": "uint256",
          "name": "tokenId",
          "type": "uint256"
        },
        {
          "internalType": "bytes",
          "name": "_data",
          "type": "bytes"
        }
      ],
      "name": "safeTransferFrom",
      "outputs": [],
      "stateMutability": "nonpayable",
      "type": "function"
    },
    {
      "inputs": [
        {
          "internalType": "address",
          "name": "operator",
          "type": "address"
        },
        {
          "internalType": "bool",
          "name": "approved",
          "type": "bool"
        }
      ],
      "name": "setApprovalForAll",
      "outputs": [],
      "stateMutability": "nonpayable",
      "type": "function"
    },
    {
      "inputs": [
        {
          "internalType": "bytes4",
          "name": "interfaceId",
          "type": "bytes4"
        }
      ],
      "name": "supportsInterface",
      "outputs": [
        {
          "internalType": "bool",
          "name": "",
          "type": "bool"
        }
      ],
      "stateMutability": "view",
      "type": "function"
    },
    {
      "inputs": [],
      "name": "symbol",
      "outputs": [
        {
          "internalType": "string",
          "name": "",
          "type": "string"
        }
      ],
      "stateMutability": "view",
      "type": "function"
    },
    {
      "inputs": [
        {
          "internalType": "uint256",
          "name": "tokenId",
          "type": "uint256"
        }
      ],
      "name": "tokenURI",
      "outputs": [
        {
          "internalType": "string",
          "name": "",
          "type": "string"
        }
      ],
      "stateMutability": "view",
      "type": "function"
    },
    {
      "inputs": [
        {
          "internalType": "address",
          "name": "from",
          "type": "address"
        },
        {
          "internalType": "address",
          "name": "to",
          "type": "address"
        },
        {
          "internalType": "uint256",
          "name": "tokenId",
          "type": "uint256"
        }
      ],
      "name": "transferFrom",
      "outputs": [],
      "stateMutability": "nonpayable",
      "type": "function"
    }
  ],
  "bytecode": "0x60806040523480156200001157600080fd5b506040518060400160405280600481526020017f456c6f6e000000000000000000000000000000000000000000000000000000008152506040518060400160405280600481526020017f454c4f4e00000000000000000000000000000000000000000000000000000000815250816000908051906020019062000096929190620000b8565b508060019080519060200190620000af929190620000b8565b505050620001cd565b828054620000c69062000168565b90600052602060002090601f016020900481019282620000ea576000855562000136565b82601f106200010557805160ff191683800117855562000136565b8280016001018555821562000136579182015b828111156200013557825182559160200191906001019062000118565b5b50905062000145919062000149565b5090565b5b80821115620001645760008160009055506001016200014a565b5090565b600060028204905060018216806200018157607f821691505b602082108114156200019857620001976200019e565b5b50919050565b7f4e487b7100000000000000000000000000000000000000000000000000000000600052602260045260246000fd5b612c1980620001dd6000396000f3fe608060405234801561001057600080fd5b50600436106100ea5760003560e01c80636352211e1161008c578063a22cb46511610066578063a22cb4651461025d578063b88d4fde14610279578063c87b56dd14610295578063e985e9c5146102c5576100ea565b80636352211e146101df57806370a082311461020f57806395d89b411461023f576100ea565b8063095ea7b3116100c8578063095ea7b31461016d57806314f710fe1461018957806323b872dd146101a757806342842e0e146101c3576100ea565b806301ffc9a7146100ef57806306fdde031461011f578063081812fc1461013d575b600080fd5b61010960048036038101906101049190611c96565b6102f5565b604051610116919061209c565b60405180910390f35b6101276103d7565b60405161013491906120b7565b60405180910390f35b61015760048036038101906101529190611ce8565b610469565b6040516101649190612035565b60405180910390f35b61018760048036038101906101829190611c5a565b6104ee565b005b610191610606565b60405161019e9190612317565b60405180910390f35b6101c160048036038101906101bc9190611b54565b610693565b005b6101dd60048036038101906101d89190611b54565b6106f3565b005b6101f960048036038101906101f49190611ce8565b610713565b6040516102069190612035565b60405180910390f35b61022960048036038101906102249190611aef565b6107c5565b6040516102369190612317565b60405180910390f35b61024761087d565b60405161025491906120b7565b60405180910390f35b61027760048036038101906102729190611c1e565b61090f565b005b610293600480360381019061028e9190611ba3565b610925565b005b6102af60048036038101906102aa9190611ce8565b610987565b6040516102bc91906120b7565b60405180910390f35b6102df60048036038101906102da9190611b18565b610ad9565b6040516102ec919061209c565b60405180910390f35b60007f80ac58cd000000000000000000000000000000000000000000000000000000007bffffffffffffffffffffffffffffffffffffffffffffffffffffffff1916827bffffffffffffffffffffffffffffffffffffffffffffffffffffffff191614806103c057507f5b5e139f000000000000000000000000000000000000000000000000000000007bffffffffffffffffffffffffffffffffffffffffffffffffffffffff1916827bffffffffffffffffffffffffffffffffffffffffffffffffffffffff1916145b806103d057506103cf82610b6d565b5b9050919050565b6060600080546103e69061253c565b80601f01602080910402602001604051908101604052809291908181526020018280546104129061253c565b801561045f5780601f106104345761010080835404028352916020019161045f565b820191906000526020600020905b81548152906001019060200180831161044257829003601f168201915b5050505050905090565b600061047482610bd7565b6104b3576040517f08c379a00000000000000000000000000000000000000000000000000000000081526004016104aa90612297565b60405180910390fd5b6004600083815260200190815260200160002060009054906101000a900473ffffffffffffffffffffffffffffffffffffffff169050919050565b60006104f982610713565b90508073ffffffffffffffffffffffffffffffffffffffff168373ffffffffffffffffffffffffffffffffffffffff16141561056a576040517f08c379a0000000000000000000000000000000000000000000000000000000008152600401610561906122d7565b60405180910390fd5b8073ffffffffffffffffffffffffffffffffffffffff16610589610c43565b73ffffffffffffffffffffffffffffffffffffffff1614806105b857506105b7816105b2610c43565b610ad9565b5b6105f7576040517f08c379a00000000000000000000000000000000000000000000000000000000081526004016105ee906121d7565b60405180910390fd5b6106018383610c4b565b505050565b60006106126007610d04565b600061061e6007610d1a565b905061062a3382610d28565b610669816040518060400160405280601d81526020017f68747470733a2f2f6a736f6e6b65657065722e636f6d2f622f46454f39000000815250610f02565b61068c604051806060016040528060238152602001612bc1602391398233610f76565b8091505090565b6106a461069e610c43565b82611015565b6106e3576040517f08c379a00000000000000000000000000000000000000000000000000000000081526004016106da906122f7565b60405180910390fd5b6106ee8383836110f3565b505050565b61070e83838360405180602001604052806000815250610925565b505050565b6000806002600084815260200190815260200160002060009054906101000a900473ffffffffffffffffffffffffffffffffffffffff169050600073ffffffffffffffffffffffffffffffffffffffff168173ffffffffffffffffffffffffffffffffffffffff1614156107bc576040517f08c379a00000000000000000000000000000000000000000000000000000000081526004016107b390612217565b60405180910390fd5b80915050919050565b60008073ffffffffffffffffffffffffffffffffffffffff168273ffffffffffffffffffffffffffffffffffffffff161415610836576040517f08c379a000000000000000000000000000000000000000000000000000000000815260040161082d906121f7565b60405180910390fd5b600360008373ffffffffffffffffffffffffffffffffffffffff1673ffffffffffffffffffffffffffffffffffffffff168152602001908152602001600020549050919050565b60606001805461088c9061253c565b80601f01602080910402602001604051908101604052809291908181526020018280546108b89061253c565b80156109055780601f106108da57610100808354040283529160200191610905565b820191906000526020600020905b8154815290600101906020018083116108e857829003601f168201915b5050505050905090565b61092161091a610c43565b838361135a565b5050565b610936610930610c43565b83611015565b610975576040517f08c379a000000000000000000000000000000000000000000000000000000000815260040161096c906122f7565b60405180910390fd5b610981848484846114c7565b50505050565b606061099282610bd7565b6109d1576040517f08c379a00000000000000000000000000000000000000000000000000000000081526004016109c890612277565b60405180910390fd5b60006006600084815260200190815260200160002080546109f19061253c565b80601f0160208091040260200160405190810160405280929190818152602001828054610a1d9061253c565b8015610a6a5780601f10610a3f57610100808354040283529160200191610a6a565b820191906000526020600020905b815481529060010190602001808311610a4d57829003601f168201915b505050505090506000610a7b611523565b9050600081511415610a91578192505050610ad4565b600082511115610ac6578082604051602001610aae929190612011565b60405160208183030381529060405292505050610ad4565b610acf8461153a565b925050505b919050565b6000600560008473ffffffffffffffffffffffffffffffffffffffff1673ffffffffffffffffffffffffffffffffffffffff16815260200190815260200160002060008373ffffffffffffffffffffffffffffffffffffffff1673ffffffffffffffffffffffffffffffffffffffff16815260200190815260200160002060009054906101000a900460ff16905092915050565b60007f01ffc9a7000000000000000000000000000000000000000000000000000000007bffffffffffffffffffffffffffffffffffffffffffffffffffffffff1916827bffffffffffffffffffffffffffffffffffffffffffffffffffffffff1916149050919050565b60008073ffffffffffffffffffffffffffffffffffffffff166002600084815260200190815260200160002060009054906101000a900473ffffffffffffffffffffffffffffffffffffffff1673ffffffffffffffffffffffffffffffffffffffff1614159050919050565b600033905090565b816004600083815260200190815260200160002060006101000a81548173ffffffffffffffffffffffffffffffffffffffff021916908373ffffffffffffffffffffffffffffffffffffffff160217905550808273ffffffffffffffffffffffffffffffffffffffff16610cbe83610713565b73ffffffffffffffffffffffffffffffffffffffff167f8c5be1e5ebec7d5bd14f71427d1e84f3dd0314c0f7b2291e5b200ac8c7c3b92560405160405180910390a45050565b6001816000016000828254019250508190555050565b600081600001549050919050565b600073ffffffffffffffffffffffffffffffffffffffff168273ffffffffffffffffffffffffffffffffffffffff161415610d98576040517f08c379a0000000000000000000000000000000000000000000000000000000008152600401610d8f90612257565b60405180910390fd5b610da181610bd7565b15610de1576040517f08c379a0000000000000000000000000000000000000000000000000000000008152600401610dd890612157565b60405180910390fd5b610ded600083836115e1565b6001600360008473ffffffffffffffffffffffffffffffffffffffff1673ffffffffffffffffffffffffffffffffffffffff1681526020019081526020016000206000828254610e3d91906123cb565b92505081905550816002600083815260200190815260200160002060006101000a81548173ffffffffffffffffffffffffffffffffffffffff021916908373ffffffffffffffffffffffffffffffffffffffff160217905550808273ffffffffffffffffffffffffffffffffffffffff16600073ffffffffffffffffffffffffffffffffffffffff167fddf252ad1be2c89b69c2b068fc378daa952ba7f163c4a11628f55a4df523b3ef60405160405180910390a4610efe600083836115e6565b5050565b610f0b82610bd7565b610f4a576040517f08c379a0000000000000000000000000000000000000000000000000000000008152600401610f4190612237565b60405180910390fd5b80600660008481526020019081526020016000209080519060200190610f7192919061197b565b505050565b611010838383604051602401610f8e939291906120d9565b6040516020818303038152906040527fe3849f79000000000000000000000000000000000000000000000000000000007bffffffffffffffffffffffffffffffffffffffffffffffffffffffff19166020820180517bffffffffffffffffffffffffffffffffffffffffffffffffffffffff83818316178352505050506115eb565b505050565b600061102082610bd7565b61105f576040517f08c379a0000000000000000000000000000000000000000000000000000000008152600401611056906121b7565b60405180910390fd5b600061106a83610713565b90508073ffffffffffffffffffffffffffffffffffffffff168473ffffffffffffffffffffffffffffffffffffffff1614806110d957508373ffffffffffffffffffffffffffffffffffffffff166110c184610469565b73ffffffffffffffffffffffffffffffffffffffff16145b806110ea57506110e98185610ad9565b5b91505092915050565b8273ffffffffffffffffffffffffffffffffffffffff1661111382610713565b73ffffffffffffffffffffffffffffffffffffffff1614611169576040517f08c379a000000000000000000000000000000000000000000000000000000000815260040161116090612137565b60405180910390fd5b600073ffffffffffffffffffffffffffffffffffffffff168273ffffffffffffffffffffffffffffffffffffffff1614156111d9576040517f08c379a00000000000000000000000000000000000000000000000000000000081526004016111d090612177565b60405180910390fd5b6111e48383836115e1565b6111ef600082610c4b565b6001600360008573ffffffffffffffffffffffffffffffffffffffff1673ffffffffffffffffffffffffffffffffffffffff168152602001908152602001600020600082825461123f9190612452565b925050819055506001600360008473ffffffffffffffffffffffffffffffffffffffff1673ffffffffffffffffffffffffffffffffffffffff168152602001908152602001600020600082825461129691906123cb565b92505081905550816002600083815260200190815260200160002060006101000a81548173ffffffffffffffffffffffffffffffffffffffff021916908373ffffffffffffffffffffffffffffffffffffffff160217905550808273ffffffffffffffffffffffffffffffffffffffff168473ffffffffffffffffffffffffffffffffffffffff167fddf252ad1be2c89b69c2b068fc378daa952ba7f163c4a11628f55a4df523b3ef60405160405180910390a46113558383836115e6565b505050565b8173ffffffffffffffffffffffffffffffffffffffff168373ffffffffffffffffffffffffffffffffffffffff1614156113c9576040517f08c379a00000000000000000000000000000000000000000000000000000000081526004016113c090612197565b60405180910390fd5b80600560008573ffffffffffffffffffffffffffffffffffffffff1673ffffffffffffffffffffffffffffffffffffffff16815260200190815260200160002060008473ffffffffffffffffffffffffffffffffffffffff1673ffffffffffffffffffffffffffffffffffffffff16815260200190815260200160002060006101000a81548160ff0219169083151502179055508173ffffffffffffffffffffffffffffffffffffffff168373ffffffffffffffffffffffffffffffffffffffff167f17307eab39ab6107e8899845ad3d59bd9653f200f220920489ca2b5937696c31836040516114ba919061209c565b60405180910390a3505050565b6114d28484846110f3565b6114de84848484611614565b61151d576040517f08c379a000000000000000000000000000000000000000000000000000000000815260040161151490612117565b60405180910390fd5b50505050565b606060405180602001604052806000815250905090565b606061154582610bd7565b611584576040517f08c379a000000000000000000000000000000000000000000000000000000000815260040161157b906122b7565b60405180910390fd5b600061158e611523565b905060008151116115ae57604051806020016040528060008152506115d9565b806115b8846117ab565b6040516020016115c9929190612011565b6040516020818303038152906040525b915050919050565b505050565b505050565b60008151905060006a636f6e736f6c652e6c6f679050602083016000808483855afa5050505050565b60006116358473ffffffffffffffffffffffffffffffffffffffff16611958565b1561179e578373ffffffffffffffffffffffffffffffffffffffff1663150b7a0261165e610c43565b8786866040518563ffffffff1660e01b81526004016116809493929190612050565b602060405180830381600087803b15801561169a57600080fd5b505af19250505080156116cb57506040513d601f19601f820116820180604052508101906116c89190611cbf565b60015b61174e573d80600081146116fb576040519150601f19603f3d011682016040523d82523d6000602084013e611700565b606091505b50600081511415611746576040517f08c379a000000000000000000000000000000000000000000000000000000000815260040161173d90612117565b60405180910390fd5b805181602001fd5b63150b7a0260e01b7bffffffffffffffffffffffffffffffffffffffffffffffffffffffff1916817bffffffffffffffffffffffffffffffffffffffffffffffffffffffff1916149150506117a3565b600190505b949350505050565b606060008214156117f3576040518060400160405280600181526020017f30000000000000000000000000000000000000000000000000000000000000008152509050611953565b600082905060005b6000821461182557808061180e9061259f565b915050600a8261181e9190612421565b91506117fb565b60008167ffffffffffffffff811115611867577f4e487b7100000000000000000000000000000000000000000000000000000000600052604160045260246000fd5b6040519080825280601f01601f1916602001820160405280156118995781602001600182028036833780820191505090505b5090505b6000851461194c576001826118b29190612452565b9150600a856118c191906125e8565b60306118cd91906123cb565b60f81b818381518110611909577f4e487b7100000000000000000000000000000000000000000000000000000000600052603260045260246000fd5b60200101907effffffffffffffffffffffffffffffffffffffffffffffffffffffffffffff1916908160001a905350600a856119459190612421565b945061189d565b8093505050505b919050565b6000808273ffffffffffffffffffffffffffffffffffffffff163b119050919050565b8280546119879061253c565b90600052602060002090601f0160209004810192826119a957600085556119f0565b82601f106119c257805160ff19168380011785556119f0565b828001600101855582156119f0579182015b828111156119ef5782518255916020019190600101906119d4565b5b5090506119fd9190611a01565b5090565b5b80821115611a1a576000816000905550600101611a02565b5090565b6000611a31611a2c84612357565b612332565b905082815260208101848484011115611a4957600080fd5b611a548482856124fa565b509392505050565b600081359050611a6b81612b64565b92915050565b600081359050611a8081612b7b565b92915050565b600081359050611a9581612b92565b92915050565b600081519050611aaa81612b92565b92915050565b600082601f830112611ac157600080fd5b8135611ad1848260208601611a1e565b91505092915050565b600081359050611ae981612ba9565b92915050565b600060208284031215611b0157600080fd5b6000611b0f84828501611a5c565b91505092915050565b60008060408385031215611b2b57600080fd5b6000611b3985828601611a5c565b9250506020611b4a85828601611a5c565b9150509250929050565b600080600060608486031215611b6957600080fd5b6000611b7786828701611a5c565b9350506020611b8886828701611a5c565b9250506040611b9986828701611ada565b9150509250925092565b60008060008060808587031215611bb957600080fd5b6000611bc787828801611a5c565b9450506020611bd887828801611a5c565b9350506040611be987828801611ada565b925050606085013567ffffffffffffffff811115611c0657600080fd5b611c1287828801611ab0565b91505092959194509250565b60008060408385031215611c3157600080fd5b6000611c3f85828601611a5c565b9250506020611c5085828601611a71565b9150509250929050565b60008060408385031215611c6d57600080fd5b6000611c7b85828601611a5c565b9250506020611c8c85828601611ada565b9150509250929050565b600060208284031215611ca857600080fd5b6000611cb684828501611a86565b91505092915050565b600060208284031215611cd157600080fd5b6000611cdf84828501611a9b565b91505092915050565b600060208284031215611cfa57600080fd5b6000611d0884828501611ada565b91505092915050565b611d1a81612486565b82525050565b611d2981612498565b82525050565b6000611d3a82612388565b611d44818561239e565b9350611d54818560208601612509565b611d5d816126d5565b840191505092915050565b6000611d7382612393565b611d7d81856123af565b9350611d8d818560208601612509565b611d96816126d5565b840191505092915050565b6000611dac82612393565b611db681856123c0565b9350611dc6818560208601612509565b80840191505092915050565b6000611ddf6032836123af565b9150611dea826126e6565b604082019050919050565b6000611e026025836123af565b9150611e0d82612735565b604082019050919050565b6000611e25601c836123af565b9150611e3082612784565b602082019050919050565b6000611e486024836123af565b9150611e53826127ad565b604082019050919050565b6000611e6b6019836123af565b9150611e76826127fc565b602082019050919050565b6000611e8e602c836123af565b9150611e9982612825565b604082019050919050565b6000611eb16038836123af565b9150611ebc82612874565b604082019050919050565b6000611ed4602a836123af565b9150611edf826128c3565b604082019050919050565b6000611ef76029836123af565b9150611f0282612912565b604082019050919050565b6000611f1a602e836123af565b9150611f2582612961565b604082019050919050565b6000611f3d6020836123af565b9150611f48826129b0565b602082019050919050565b6000611f606031836123af565b9150611f6b826129d9565b604082019050919050565b6000611f83602c836123af565b9150611f8e82612a28565b604082019050919050565b6000611fa6602f836123af565b9150611fb182612a77565b604082019050919050565b6000611fc96021836123af565b9150611fd482612ac6565b604082019050919050565b6000611fec6031836123af565b9150611ff782612b15565b604082019050919050565b61200b816124f0565b82525050565b600061201d8285611da1565b91506120298284611da1565b91508190509392505050565b600060208201905061204a6000830184611d11565b92915050565b60006080820190506120656000830187611d11565b6120726020830186611d11565b61207f6040830185612002565b81810360608301526120918184611d2f565b905095945050505050565b60006020820190506120b16000830184611d20565b92915050565b600060208201905081810360008301526120d18184611d68565b905092915050565b600060608201905081810360008301526120f38186611d68565b90506121026020830185612002565b61210f6040830184611d11565b949350505050565b6000602082019050818103600083015261213081611dd2565b9050919050565b6000602082019050818103600083015261215081611df5565b9050919050565b6000602082019050818103600083015261217081611e18565b9050919050565b6000602082019050818103600083015261219081611e3b565b9050919050565b600060208201905081810360008301526121b081611e5e565b9050919050565b600060208201905081810360008301526121d081611e81565b9050919050565b600060208201905081810360008301526121f081611ea4565b9050919050565b6000602082019050818103600083015261221081611ec7565b9050919050565b6000602082019050818103600083015261223081611eea565b9050919050565b6000602082019050818103600083015261225081611f0d565b9050919050565b6000602082019050818103600083015261227081611f30565b9050919050565b6000602082019050818103600083015261229081611f53565b9050919050565b600060208201905081810360008301526122b081611f76565b9050919050565b600060208201905081810360008301526122d081611f99565b9050919050565b600060208201905081810360008301526122f081611fbc565b9050919050565b6000602082019050818103600083015261231081611fdf565b9050919050565b600060208201905061232c6000830184612002565b92915050565b600061233c61234d565b9050612348828261256e565b919050565b6000604051905090565b600067ffffffffffffffff821115612372576123716126a6565b5b61237b826126d5565b9050602081019050919050565b600081519050919050565b600081519050919050565b600082825260208201905092915050565b600082825260208201905092915050565b600081905092915050565b60006123d6826124f0565b91506123e1836124f0565b9250827fffffffffffffffffffffffffffffffffffffffffffffffffffffffffffffffff0382111561241657612415612619565b5b828201905092915050565b600061242c826124f0565b9150612437836124f0565b92508261244757612446612648565b5b828204905092915050565b600061245d826124f0565b9150612468836124f0565b92508282101561247b5761247a612619565b5b828203905092915050565b6000612491826124d0565b9050919050565b60008115159050919050565b60007fffffffff0000000000000000000000000000000000000000000000000000000082169050919050565b600073ffffffffffffffffffffffffffffffffffffffff82169050919050565b6000819050919050565b82818337600083830152505050565b60005b8381101561252757808201518184015260208101905061250c565b83811115612536576000848401525b50505050565b6000600282049050600182168061255457607f821691505b6020821081141561256857612567612677565b5b50919050565b612577826126d5565b810181811067ffffffffffffffff82111715612596576125956126a6565b5b80604052505050565b60006125aa826124f0565b91507fffffffffffffffffffffffffffffffffffffffffffffffffffffffffffffffff8214156125dd576125dc612619565b5b600182019050919050565b60006125f3826124f0565b91506125fe836124f0565b92508261260e5761260d612648565b5b828206905092915050565b7f4e487b7100000000000000000000000000000000000000000000000000000000600052601160045260246000fd5b7f4e487b7100000000000000000000000000000000000000000000000000000000600052601260045260246000fd5b7f4e487b7100000000000000000000000000000000000000000000000000000000600052602260045260246000fd5b7f4e487b7100000000000000000000000000000000000000000000000000000000600052604160045260246000fd5b6000601f19601f8301169050919050565b7f4552433732313a207472616e7366657220746f206e6f6e20455243373231526560008201527f63656976657220696d706c656d656e7465720000000000000000000000000000602082015250565b7f4552433732313a207472616e736665722066726f6d20696e636f72726563742060008201527f6f776e6572000000000000000000000000000000000000000000000000000000602082015250565b7f4552433732313a20746f6b656e20616c7265616479206d696e74656400000000600082015250565b7f4552433732313a207472616e7366657220746f20746865207a65726f2061646460008201527f7265737300000000000000000000000000000000000000000000000000000000602082015250565b7f4552433732313a20617070726f766520746f2063616c6c657200000000000000600082015250565b7f4552433732313a206f70657261746f7220717565727920666f72206e6f6e657860008201527f697374656e7420746f6b656e0000000000000000000000000000000000000000602082015250565b7f4552433732313a20617070726f76652063616c6c6572206973206e6f74206f7760008201527f6e6572206e6f7220617070726f76656420666f7220616c6c0000000000000000602082015250565b7f4552433732313a2062616c616e636520717565727920666f7220746865207a6560008201527f726f206164647265737300000000000000000000000000000000000000000000602082015250565b7f4552433732313a206f776e657220717565727920666f72206e6f6e657869737460008201527f656e7420746f6b656e0000000000000000000000000000000000000000000000602082015250565b7f45524337323155524953746f726167653a2055524920736574206f66206e6f6e60008201527f6578697374656e7420746f6b656e000000000000000000000000000000000000602082015250565b7f4552433732313a206d696e7420746f20746865207a65726f2061646472657373600082015250565b7f45524337323155524953746f726167653a2055524920717565727920666f722060008201527f6e6f6e6578697374656e7420746f6b656e000000000000000000000000000000602082015250565b7f4552433732313a20617070726f76656420717565727920666f72206e6f6e657860008201527f697374656e7420746f6b656e0000000000000000000000000000000000000000602082015250565b7f4552433732314d657461646174613a2055524920717565727920666f72206e6f60008201527f6e6578697374656e7420746f6b656e0000000000000000000000000000000000602082015250565b7f4552433732313a20617070726f76616c20746f2063757272656e74206f776e6560008201527f7200000000000000000000000000000000000000000000000000000000000000602082015250565b7f4552433732313a207472616e736665722063616c6c6572206973206e6f74206f60008201527f776e6572206e6f7220617070726f766564000000000000000000000000000000602082015250565b612b6d81612486565b8114612b7857600080fd5b50565b612b8481612498565b8114612b8f57600080fd5b50565b612b9b816124a4565b8114612ba657600080fd5b50565b612bb2816124f0565b8114612bbd57600080fd5b5056fe546865204e465420494420257320686173206265656e206d696e74656420746f202573a26469706673582212206e77ddb14f20a18817a9f448c16b2359c487ed084c4d00a8916e8d5434914f8064736f6c63430008040033",
  "linkReferences": {},
  "deployedLinkReferences": {}
}